:1000000019C1000048C1000046C1000044C1000001
:1000100042C1000040C100003EC100003CC10000E0
:100020003AC1000038C1000036C1000034C10000F0
:1000300032C1000030C100002EC100002CC1000000
:100040002AC1000085C7000026C1000024C10000AD
:100050000C94050A20C100001EC1000037C5000035
:100060001AC1000028C30000FDC2000014C1000036
:1000700012C1000010C100000EC100000CC1000040
:100080003AC7000008C1000006C1000004C100001A
:1000900002C1000000C10000FEC0000086C70000D1
:1000A000FAC00000F8C00000F9C60000F4C000006B
:1000B000F2C00000F0C00000EEC00000C2C60000A8
:1000C000EAC00000E8C00000E6C00000E4C0000094
:1000D000E2C00000E0C00000DEC00000DCC00000A4
:1000E000DAC00000C003C303B203B603BA03FA03C5
:1000F000C703CB03D103D503D903DF03E303E7032E
:10010000FA03ED03F103F5032C0E310E360E400E0B
:100110004A0EC30E540E5C0E640E6E0E780E820EE6
:10012000910E9B0EC30EA50EAF0EB90E000021005E
:10013000240027002A002D003000330001010000B8
:10014000040107010A0100002200250028002B00FD
:100150002E003100340002010000050108010B01EE
:1001600005050505070508080808020202020A0A33
:100170000808040404040101010101010101030351
:10018000030303030303040707070C0C0C0C0C0CFC
:100190000C0C0202020206060606060606060B0BF9
:1001A0000B0B0B0B0B0B010210202008081020403A
:1001B000102040800201020108040201010204082B
:1001C00010204080804020100804020180040201B9
:1001D0008040201008040201080402010102040802
:1001E00010204080010204081020408000000A0B0B
:1001F00002090C0D0E0807030401000000000000B6
:1002000000000000000000000000000000000000EE
:1002100000000000000000001211100000000000AB
:1002200000000000000000000000000000000000CE
:100230000000E51111241FBECFEFD1E2DEBFCDBF1C
:1002400000E00CBF13E0A0E0B2E0E6E6F5E200E07B
:100250000BBF02C007900D92A631B107D9F725E078
:10026000A6E1B3E001C01D92AC32B207E1F711E0A4
:10027000CAE1D1E000E006C021970109802FFE010C
:100280000E94A512C931D10780E00807A9F70E9492
:10029000940B0C94B112B4CEFC01538D448D252FD8
:1002A00030E0842F90E0821B930B541710F0CF9610
:1002B000089501970895FC01918D828D981761F042
:1002C000828DDF01A80FB11D5D968C91928D9F5F8D
:1002D0009F73928F90E008958FEF9FEF0895FC0138
:1002E000918D828D981731F0828DE80FF11D858DEB
:1002F00090E008958FEF9FEF0895FC01918D228D7E
:10030000892F90E0805C9F4F821B91098F73992702
:1003100008958BE694E0F1DF21E0892B09F420E0D9
:10032000822F0895FC01848DDF01A80FB11DA35A0F
:10033000BF4F2C91848D90E001968F739927848F05
:10034000A689B7892C93A089B1898C9180648C93FC
:10035000938D848D981306C00288F389E02D8081E7
:100360008F7D80830895EF92FF920F931F93CF9319
:10037000DF93EC0181E0888F9B8D8C8D981305C0F5
:10038000E889F989808185FD23C0F62E0B8D10E068
:100390000F5F1F4F0F731127E02E8C8DE8120BC0DB
:1003A0000FB607FCFACFE889F989808185FFF5CF80
:1003B000CE01B8DFF2CF8B8DFE01E80FF11DE35ABD
:1003C000FF4FF0820B8FEA89FB898081806207C032
:1003D000EE89FF896083E889F98980818064808360
:1003E00081E090E0DF91CF911F910F91FF90EF900E
:1003F0000895CF93DF93EC01888D8823C1F0EA89BB
:10040000FB89808185FD05C0A889B9898C9186FD0D
:100410000EC00FB607FCF5CF808185FFF2CFA8890B
:10042000B9898C9185FFEDCFCE017CDFE8CFDF91DC
:10043000CF91089580E090E0892B19F06ADF811157
:1004400025C080E090E0892B41F080E090E0892B8E
:1004500021F00E94000081111CC080E090E0892BF7
:1004600041F080E090E0892B21F00E940000811192
:1004700013C080E090E0892BA1F080E090E0892B10
:1004800081F00E94000081110AC008950E940000BE
:10049000D8CF0E940000E1CF0E940000EACF0C9468
:1004A000000008953FB7F8948091F3039091F4030E
:1004B000A091F503B091F60326B5A89B05C02F3F88
:1004C00019F00196A11DB11D3FBFBA2FA92F982F7A
:1004D0008827820F911DA11DB11DBC01CD0142E0F5
:1004E000660F771F881F991F4A95D1F7089585EDEC
:1004F0008093BC008091BC0084FDFCCF1092460428
:10050000089540913803262F30E0240F311D213209
:100510003105DCF4209146042430C9F4FC0180E06C
:1005200090E0861758F4309138032191DC01AA5EDF
:10053000BC4FA30FB11D2C930196F3CF80913803CC
:10054000680F6093380380E0089581E0089582E0A9
:100550000895089581E090E03091FC032091FB0321
:10056000321710F480E090E09195819591090895FB
:100570008091FC039091FB03891730F48F5F809387
:10058000FC0380E090E008958FEF9FEF0895809145
:10059000FB0390E02091FC03821B91090895CF9208
:1005A000DF92EF92FF920F931F93CF93DF937C0123
:1005B000262F972F8A0180914704882391F0C62F18
:1005C000D72F6E01C40ED51ECC15DD0569F06991DB
:1005D000D701ED91FC910190F081E02DC7011995B3
:1005E000F3CF642F822F8DDFC801DF91CF911F9150
:1005F0000F91FF90EF90DF90CF900895CF93DF930E
:100600001F92CDB7DEB76983209147042223D1F032
:1006100020916A04203240F021E030E0FC01338375
:10062000228380E090E014C080914804E82FF0E03D
:10063000E75BFB4F998190838F5F809348048093A1
:100640006A0404C061E0CE0101965BDF81E090E0C6
:100650000F90DF91CF910895089580E090E0089584
:100660000E94AD121F920F920FB60F9211240BB67B
:100670000F922F933F934F935F936F937F938F933B
:100680009F93AF93BF93EF93FF938BE694E04ADE83
:10069000FF91EF91BF91AF919F918F917F916F915A
:1006A0005F914F913F912F910F900BBE0F900FBE16
:1006B0000F901F9018951F920F920FB60F92112452
:1006C0000BB60F922F938F939F93EF93FF93E0912D
:1006D0007B04F0917C048081E0918104F09182049C
:1006E00082FD12C09081809184048F5F8F7320916E
:1006F0008504821751F0E0918404F0E0E559FB4F46
:10070000958F8093840401C08081FF91EF919F9128
:100710008F912F910F900BBE0F900FBE0F901F90D7
:100720001895362F90E0FC01E451FE4F4491FC01F6
:10073000EA55FE4F2491FC01E05AFE4F9491992313
:1007400009F46BC0442309F455C050E0FA01319715
:10075000E231F10508F04EC08827EE58FF4F8F4F69
:100760000C94A512809180008F7707C08091800043
:100770008F7D03C080918000877F809380003AC086
:1007800084B58F7702C084B58F7D84BD33C08091DE
:10079000B0008F7703C08091B0008F7D8093B00050
:1007A00029C0809190008F7707C0809190008F7D45
:1007B00003C080919000877F809390001BC0809140
:1007C000A0008F7707C08091A0008F7D03C080912B
:1007D000A000877F8093A0000DC0809120018F77BB
:1007E00007C0809120018F7D03C080912001877F09
:1007F00080932001E92FF0E0EE0FFF1FEA5BFE4F30
:10080000A591B4918FB7F894EC91311103C0209564
:100810002E2301C02E2B2C938FBF0895CF92DF92F1
:10082000EF92FF920F931F93CF93DF936C018B0195
:100830007A01EC01C35ADC4F888187FF04C0FB01B9
:100840001182108224C08CE08C9D90018D9D300D12
:1008500011248881A901480F511D87FD5A95809167
:10086000610390E04817590794F48881A901480F63
:10087000511D87FD5A95CA01FA01EE0FFF1F8E0F19
:100880009F1FFC01EE59FC4F808186FD19C08881B5
:100890008F5F88838CE08C9D90018D9D300D11249D
:1008A0008881A901480F511D87FD5A9580916103E8
:1008B00090E048175907B4F488818C303CF112C09D
:1008C0008881280F311D87FD3A95F901EE0FFF1F32
:1008D0002E0F3F1FF901EE59FC4F808160E08F73AE
:1008E00020DFD5CFF80180819181049680349C4926
:1008F00018F480E49CE904C0F80180819181049699
:10090000F701918380838FEF888344C0F801408191
:1009100051818881B901680F711D87FD7A95CB01DE
:10092000FB01EE0FFF1F8E0F9F1FFC01EE59FC4FC6
:1009300081819281840F951FF70191838083888143
:10094000A901480F511D87FD5A95CA01FA01EE0F02
:10095000FF1F8E0F9F1FFC01EE59FC4F808186FF09
:1009600019C08881280F311D87FD3A95F901EE0FD6
:10097000FF1F2E0F3F1FF901EE59FC4F808161E0F0
:100980008F73DF91CF911F910F91FF90EF90DF90C8
:10099000CF90C7CEDF91CF911F910F91FF90EF9035
:1009A000DF90CF900895CF93DF9390E0FC01EA555C
:1009B000FE4F2491FC01E05AFE4F8491882361F19F
:1009C00090E0880F991FFC01E45DFE4FC591D49122
:1009D000FC01EA5BFE4FA591B491611109C09FB77C
:1009E000F8948881209582238883EC912E230BC074
:1009F000623061F49FB7F8943881822F8095832309
:100A00008883EC912E2B2C939FBF06C08FB7F89450
:100A1000E8812E2B28838FBFDF91CF9108958633F5
:100A200008F0865390917B00282F2870977F922B97
:100A300090937B008770806480937C0080917A0023
:100A4000806480937A0080917A0086FDFCCF80914B
:100A500078002091790090E0922B08958F929F92D8
:100A6000AF92BF92CF92DF92EF92FF926B017C0127
:100A700019DD4B015C01C114D104E104F104E9F07A
:100A800011DDDC01CB0188199909AA09BB09883E4F
:100A90009340A105B10578F321E0C21AD108E1081D
:100AA000F10888EE880E83E0981EA11CB11CC114C9
:100AB000D104E104F10421F7DECFFF90EF90DF9045
:100AC000CF90BF90AF909F908F9008951F920F92FC
:100AD0000FB60F9211242F933F938F939F93AF9351
:100AE000BF938091F7039091F803A091F903B0911F
:100AF000FA033091F20323E0230F2D3720F40196FF
:100B0000A11DB11D05C026E8230F0296A11DB11D30
:100B10002093F2038093F7039093F803A093F903D3
:100B2000B093FA038091F3039091F403A091F5033D
:100B3000B091F6030196A11DB11D8093F30390932C
:100B4000F403A093F503B093F603BF91AF919F9187
:100B50008F913F912F910F900FBE0F901F9018957E
:100B6000FC01248131E03093470420936904109202
:100B7000480410926A048385682B88E095E03EDD86
:100B80001DC50F931F93CF938C01C62FE9DF6C2FE8
:100B90006460C801E5DF6C2F6B7FC801E1DF83EC87
:100BA00090E00197F1F7CF911F910F910895FF9277
:100BB0000F931F93CF93DF931F92CDB7DEB78C01B6
:100BC000F62E962F907F692F642BC8014983D9DFB9
:100BD00080E1F89EB00111244981642BC8010F9077
:100BE000DF91CF911F910F91FF90CBCF41E0DFDFDD
:100BF00081E090E00895CF92DF92EF92FF92CF9341
:100C0000DF93EC01603282E078070CF03DC077FDA5
:100C100006C0653B71052CF064EB70E002C060E03B
:100C200070E0898128E830E06901C81AD10887FDA1
:100C3000D394CC0CDD1CCC0CDD1C0D2C000CEE0870
:100C4000FF088A8128E532E0281B310987FD3395AA
:100C5000220F331F220F331FC901330FAA0BBB0B07
:100C60009C01AD012C193D094E095F09DB010E9471
:100C7000621224EB30E040E050E00E943C12C20ED1
:100C8000D31EE41EF51EB6018881803380F599815C
:100C900048E850E0491B510997FD5395440F551FF3
:100CA000440F551F6417750784F09A8128E532E0D8
:100CB000291B310997FD3395220F331F220F331F54
:100CC000AB01261737070CF4A90142505109440F14
:100CD000551F2FB7F89490E0FC01EE0FFF1F8E0F09
:100CE0009F1FFC01EE59FC4F528341832FBFDF91C0
:100CF000CF91FF90EF90DF90CF9008951F93CF9307
:100D0000DF93EC01162F8881803308F04DC061E03D
:100D1000812F49DE8881E82FF0E09F01220F331FE9
:100D2000E20FF31FEE59FC4F1F739081907C192B3B
:100D3000108319821A826CE00E9499129CE0899FAC
:100D4000B001112440E050E09A01260F371FF9014D
:100D5000EE0FFF1F2E0F3F1FF901EE59FC4F908140
:100D600096FD16C04F5F5F4F4C30510569F78130DB
:100D700001F51092800082E080938100109285003E
:100D800010928400B19A80916F00826080936F000E
:100D9000E881F0E0CF01880F991FE80FF91FEE59A5
:100DA000FC4F8081806480838881DF91CF911F9187
:100DB0000895823061F41092900080939100109217
:100DC00095001092940088BB80937100E1CF83302E
:100DD00069F41092A00082E08093A1001092A50017
:100DE0001092A40089BB80937200D2CF8111D0CF22
:100DF0001092200182E0809321011092250110922F
:100E000024018ABB80937300C3CFFC0190916103DE
:100E10009033A0F481E0890F809361039083892F40
:100E200090E0FC01EE0FFF1F8E0F9F1FFC01EE599B
:100E3000FC4F88EB9BE09283818308958FEF808342
:100E400008951F920F920FB60F9211240BB60F92B6
:100E50002F933F934F935F936F937F938F939F93C2
:100E6000AF93BF93EF93FF9348E251E064E271E0E8
:100E700080E090E0D3DCFF91EF91BF91AF919F9123
:100E80008F917F916F915F914F913F912F910F9033
:100E90000BBE0F900FBE0F901F9018951F920F92D0
:100EA0000FB60F9211240BB60F922F933F934F93CF
:100EB0005F936F937F938F939F93AF93BF93EF93C2
:100EC000FF9348EA50E064EA70E083E090E0A6DC3B
:100ED000FF91EF91BF91AF919F918F917F916F9112
:100EE0005F914F913F912F910F900BBE0F900FBECE
:100EF0000F901F9018951F920F920FB60F9211240A
:100F00000BB60F922F933F934F935F936F937F9303
:100F10008F939F93AF93BF93EF93FF9348E950E074
:100F200064E970E082E090E079DCFF91EF91BF919D
:100F3000AF919F918F917F916F915F914F913F9171
:100F40002F910F900BBE0F900FBE0F901F90189512
:100F50001F920F920FB60F9211240BB60F922F9380
:100F60003F934F935F936F937F938F939F93AF9331
:100F7000BF93EF93FF9348E850E064E870E081E0AE
:100F800090E04CDCFF91EF91BF91AF919F918F91D9
:100F90007F916F915F914F913F912F910F900BBE79
:100FA0000F900FBE0F901F9018951F920F920FB6C3
:100FB0000F9211240BB60F922F933F934F935F9391
:100FC0006F937F938F939F93AF93BF93EF93FF9311
:100FD0008091B900887F803609F49CC068F588321A
:100FE00009F45BC090F4803109F454C038F48823CC
:100FF00009F4F6C0883009F44DC0F5C0883109F411
:101000004CC0803209F45DC0EEC0803409F468C081
:1010100048F4803309F455C0883309F0E4C0809364
:101020004404D8C0803509F44FC0883509F45DC048
:10103000883409F0D8C0D6C0883909F4C7C0A8F4EC
:10104000883709F467C038F4883609F463C08037FC
:1010500009F460C0C8C0883809F4B8C0803909F400
:101060005FC0803809F0BFC05BC0803B09F486C018
:1010700038F4803A09F466C0883A09F47FC0B3C0F6
:10108000803C09F4A7C0883C09F4A4C0883B09F45B
:101090008AC0A9C08091210410C09091430480911E
:1010A0004204981770F5E091430481E08E0F80931D
:1010B0004304F0E0EE5DFB4F80818093BB0085EC44
:1010C00086C0809344048EC0E091430481E08E0F7B
:1010D000809343048091BB00F0E0EE5DFB4F808382
:1010E00090914304809142046EC0E091430481E0FA
:1010F0008E0F809343048091BB00F0E0EE5DFB4FC8
:1011000080838091450481116DC081E0809320042B
:1011100084EA61C083E08093460410925C03CFCFE1
:1011200080915C03803208F051C0E0915C0381E063
:101130008E0F80935C038091BB00F0E0E45CFC4F79
:101140008083BDCF85EC8093BC00109246048091D3
:101150005C03803230F4E0915C03F0E0E45CFC4F2F
:10116000108260915C0370E0E0913A03F0913B03E0
:101170008CE393E0199510925C0335C084E0809372
:1011800046041092390310923803E0913603F0912F
:101190003703199580913803811105C081E0809350
:1011A000380310921603E091390381E08E0F80938B
:1011B0003903F0E0EA5EFC4F80818093BB009091A0
:1011C000390380913803981708F479CF85E8809324
:1011D000BC0009C085EC8093BC001092460403C09B
:1011E0001092440484D9FF91EF91BF91AF919F91E8
:1011F0008F917F916F915F914F913F912F910F90C0
:101200000BBE0F900FBE0F901F90189510924604C2
:1012100081E0809345041092200461E084E181DA4A
:1012200061E085E17EDAE9EBF0E080818E7F80830A
:1012300080818D7F808388E48093B80085E48093EB
:10124000BC00089591E09093470492E7909369045D
:101250001092480410926A04682F88E095E0CED975
:10126000ADC191E09093470490E790936904109288
:10127000480410926A04682F88E095E0BFD99EC1A7
:101280008230910569F01CF4019739F0089583309C
:10129000910549F0049751F0089561E08FE141DA3A
:1012A00061E08EE13EDA61E08DE13BDA61E08CE104
:1012B00038CA8230910569F01CF4019739F008951D
:1012C0008330910549F0049751F0089560E08FE173
:1012D00028DA60E08EE125DA60E08DE122DA60E074
:1012E0008CE11FCA60E085E31CDA61E084E319DA6F
:1012F00060E083E316DA60E082E313DA61E081E321
:1013000010DA60E080E30DDA60E08FE20ADA61E093
:101310008EE207DA60E08DE204DA60E08CE201DA66
:1013200061E08BE2FED960E08AE2FBC960E085E320
:10133000F8D961E084E3F5D960E083E3F2D960E0B5
:1013400082E3EFD961E081E3ECD960E080E3E9D9A1
:1013500060E08FE2E6D961E08EE2E3D960E08DE201
:10136000E0D961E08CE2DDD960E08BE2DAD960E0BF
:101370008AE2D7C96DE570E08DE195E03CDC6DE572
:1013800070E08AE195E037DC61E088E00CDB60E04A
:1013900088E0C7D960E083E0C4D960E084E0C1C9D7
:1013A00068E070E08DE195E026DC68E070E08AE1BD
:1013B00095E021CCCF93DF93C8E8D3E161E08FE1E2
:1013C000B0D961E08EE1ADD961E08DE1AAD961E0EB
:1013D0008CE1A7D961E082E0A4D9219779F760E098
:1013E00082E09FD968EE73E080E090E037DB60E058
:1013F0008FE197D960E08EE194D960E08DE191D9D9
:1014000060E08CE1DF91CF918CC91F920F920FB6F3
:101410000F9211240BB60F928F929F92AF92BF92B0
:10142000CF92DF92EF92FF922F933F934F935F9370
:101430006F937F938F939F93AF93BF93EF93FF939C
:10144000CF93DF93CDB7DEB7A197DEBFCDBF86EFD9
:1014500092EC90938500809384008091FF0390919B
:101460000004181619062CF4019790930004809339
:10147000FF03C090FD03D090FE030D2C000CEE087E
:10148000FF08F7FE2BC0E0916B04F0916C04019013
:10149000F081E02D6DE28BE694E019952227332749
:1014A000A9012C193D094E095F0919A2CE018196A7
:1014B0007C019AE0892E912CA12CB12CCA01B90192
:1014C000A50194010E946812605DF70162937F019B
:1014D000211531054105510589F719C0A70196016C
:1014E00019A2CE0181967C018AE0882E912CA12C34
:1014F000B12CCA01B901A5019401EAD7605DF701D9
:1015000062937F01211531054105510591F7B7011E
:101510008BE694E0F0D060E472E08BE694E0EBD0F0
:10152000A1960FB6F894DEBF0FBECDBFDF91CF916D
:10153000FF91EF91BF91AF919F918F917F916F91AB
:101540005F914F913F912F91FF90EF90DF90CF905F
:10155000BF90AF909F908F900F900BBE0F900FBEDB
:101560000F901F901895CF92DF92EF92FF920F93FA
:101570001F93CF93DF936C017A018B01C0E0D0E021
:10158000CE15DF0589F0D8016D918D01D601ED9161
:10159000FC910190F081E02DC6011995892B11F481
:1015A0007E0102C02196ECCFC701DF91CF911F9140
:1015B0000F91FF90EF90DF90CF90089520916A04F3
:1015C00090916904213208F04AC08091460481114B
:1015D000FCCF32E03093460431E0309345043FEFD6
:1015E000309344041092430420934204A9E4B4E0ED
:1015F00042E254E0FA013E2F341B321718F43D91B9
:101600003193F9CF1092210420912104990F922B4C
:101610009093210490912004913061F41092200461
:10162000909121049093BB009091BC0093FDF8CF62
:1016300095EC01C095EE9093BC00909146049230D9
:10164000E1F3909144049F3F79F08091440480320B
:1016500041F080914404803331F084E005C081E0A2
:1016600003C082E001C083E01092480410926A0433
:10167000109247040895CF93DF93CDB7DEB7289734
:101680000FB6F894DEBF0FBECDBF28E0E8E0F2E071
:10169000DE01119601900D922A95E1F7209128051F
:1016A000261710F46FEF620FFE013196E60FF11D61
:1016B000E60FF11D9081682F690F606840E080E2BD
:1016C00095E028960FB6F894DEBF0FBECDBFDF9130
:1016D000CF916DCA88E080932B0560E080E295E0B1
:1016E0003FCA40E061E080E295E061DA8BE39FE190
:1016F0000197F1F708956115710579F0FB010190EB
:101700000020E9F73197AF01461B570BDC01ED9143
:10171000FC910280F381E02D199480E090E008951F
:10172000BC0180E295E0E7CF789484B5826084BD07
:1017300084B5816084BD85B5826085BD85B58160D5
:1017400085BD80916E00816080936E001092810053
:10175000809181008260809381008091810081600E
:1017600080938100809180008160809380008091CF
:10177000B10084608093B1008091B000816080935B
:10178000B0008091910082608093910080919100DF
:10179000816080939100809190008160809390009F
:1017A0008091A10082608093A1008091A10081605E
:1017B0008093A1008091A00081608093A00080911F
:1017C00021018260809321018091210181608093B9
:1017D00021018091200181608093200180917A0015
:1017E000846080937A0080917A00826080937A008E
:1017F00080917A00816080937A0080917A0080687D
:1018000080937A001092C100E0917B04F0917C04F7
:1018100082E08083E0917704F09178041082E09177
:101820007904F0917A048FEC808310928304E09124
:101830007F04F091800486E08083E0917D04F09144
:101840007E04808180618083E0917D04F0917E043C
:10185000808188608083E0917D04F0917E048081A6
:1018600080688083E0917D04F0917E0480818F7D8B
:1018700080831092FC031092FB0310924804109294
:101880006A04C4DC61E082E08ED861E083E08BD83A
:1018900061E084E088D861E088E085D861E085E394
:1018A00082D861E084E37FD861E083E37CD861E0A3
:1018B00082E379D861E081E376D861E080E373D890
:1018C00061E08FE270D861E08EE26DD861E08DE278
:1018D0006AD861E08CE267D861E08BE264D861E0AD
:1018E0008AE261D861E08FE15ED861E08EE15BD889
:1018F00061E08DE158D861E08CE155D861E087E086
:1019000052D860E086E34FD860E087E34CD860E0CF
:1019100089E349D860E088E346D86AE070E08DE169
:1019200095E0ECD96BE070E08AE195E0E7D96CE0F6
:1019300070E087E195E0E2D96DE070E084E195E048
:10194000DDD9F8941092800085E08093810081E0D9
:1019500080936F0086EF92EC9093850080938400D3
:10196000789483E090E0909300048093FF03C1E0BB
:1019700001E010E085E0E82EF12C9BE4C92E96E40E
:10198000D92E23E5222E22E0322E3BE3632E3FE1C7
:10199000732E8FB7F8948090F7039090F803A0907F
:1019A000F903B090FA038FBF40911E0450911F04B9
:1019B00020911C0430911D0480911A0490911B0405
:1019C000BC016C5471096133710518F4C0930104B2
:1019D00002C010920104BC01675971096F3471058E
:1019E00018F4C093080402C010920804BC016F5A96
:1019F00071406534710518F4C093070402C0109259
:101A00000704BC01635172406534710518F4C0933A
:101A1000060402C010920604BC0167577240673783
:101A2000710518F4C093040402C010920404BC01B0
:101A3000675173406D36710518F4C093050402C0F8
:101A400010920504BC01615471406F34710518F4A3
:101A5000C093030402C0109203048B5F9109C197E5
:101A600018F4C093020402C010920204205D3340B7
:101A70002C37310518F4C093170402C010921704D4
:101A8000413951401CF0C093160402C01092160454
:101A900088E30E940F052C01909319048093180489
:101AA00086E30E940F0590931B0480931A0487E33A
:101AB0000E940F0590931D0480931C0489E30E94EB
:101AC0000F0590931F0480931E0431EE431631E0FE
:101AD000530614F461E001C060E087E00E949103C6
:101AE000409006025090070261E04114510409F051
:101AF00060E0862F90E0909305028093040280912D
:101B00001704882339F080911604811103C0C09313
:101B1000150402C01092150480911504882309F45D
:101B200036C18091130490911404019709F02FC1DC
:101B30008091000290910102A0910202B0910302F3
:101B4000A5019401281B390B4A0B5B0BDA01C90173
:101B50008A389240A105B10590F0809200029092DF
:101B60000102A0920202B09203026C27862F90E03D
:101B7000909305028093040283E00E949103809178
:101B80000F0490911004A0911104B0911204A501CA
:101B90009401281B390B4A0B5B0BDA01C9018A3807
:101BA0009240A105B105B0F080920F04909210040C
:101BB000A0921104B092120461E04A94452809F4FD
:101BC00060E0862F90E0909307028093060284E005
:101BD0000E94910380910B0490910C04A0910D043C
:101BE000B0910E04A5019401281B390B4A0B5B0B25
:101BF000DA01C90185349140A105B10508F4C7C0D7
:101C000080920B0490920C04A0920D04B0920E04EA
:101C1000D1E08091090490910A04019709F4D0E081
:101C20008D2F90E090930A048093090461E088E08E
:101C30000E94D304DD2309F4A6C0E4EFF1E084910F
:101C400090E0FC013197E231F10508F09CC0882753
:101C5000EC57FF4F8F4F79C484B5806884BDC7BDF2
:101C600096C084B5806284BDC8BD91C0809180005B
:101C7000806880938000109389000093880087C05B
:101C80008091800080628093800010938B0000938D
:101C90008A007DC0809180008860809380001093CE
:101CA0008D0000938C0073C08091B0008068809399
:101CB000B000C093B3006BC08091B000806280938D
:101CC000B000C093B40063C080919000806880939E
:101CD0009000109399000093980059C08091900053
:101CE00080628093900010939B0000939A004FC0F5
:101CF0008091900088608093900010939D000093E5
:101D00009C0045C08091A00080688093A0008091D5
:101D1000A0008F7B8093A0001093A9000093A800DF
:101D200036C08091A00080628093A0001093AB0029
:101D30000093AA002CC08091A00088608093A0002E
:101D40001093AD000093AC0022C080912001806808
:101D500080932001109329010093280118C08091DD
:101D6000200180628093200110932B0100932A01AF
:101D70000EC08091200188608093200110932D0176
:101D800000932C0104C060E088E00E9491038091E0
:101D9000FF0390910004892B41F58091FD03909100
:101DA000FE030097C9F481E090E06ADA82E090E0F7
:101DB00067DA83E090E064DA84E090E061DA91DC55
:101DC00091DA83E090E0909300048093FF031093F6
:101DD000FE030093FD0309C08130910509F0DDC0C9
:101DE000DFDA80911504811107C010931404009369
:101DF00013040E941A02CDCD1092FC031092FB0333
:101E00001092480410926A0401DA1092250580911C
:101E10002A05823018F098E09093250580932805D4
:101E200062E370E080E090E00E942E0560912B0557
:101E300080E295E00E94B00568EE73E080E090E0FB
:101E40000E942E0560E380E295E00E94C105C60174
:101E50000197F1F760E380E295E00E94C105C601B9
:101E60000197F1F760E380E295E00E94C105C101AE
:101E70000197F1F760E280E295E00E94C105609170
:101E80002505606240E080E295E00E94D70584E08D
:101E90008093260540E06CE080E295E00E94D70543
:101EA00020DC82E08093270540E066E080E295E058
:101EB0000E94D70540E062E080E295E00E94D705ED
:101EC000C3010197F1F70DDC05DC60E080E0D3DBB6
:101ED00083E492E025DC61E080E0CDDB88E592E000
:101EE0001FDC62E081E0C7DB8CE692E019DC63E096
:101EF00080E0C1DB8EE792E013DC81E0B2D96EE5D1
:101F000070E087E195E00E94FB0581E09BD96EE5DA
:101F100070E084E195E00E94FB054CDA61E085E326
:101F20000E94910360E084E30E94910360E083E3F8
:101F30000E94910360E082E30E94910361E081E3EB
:101F40000E94910360E080E30E94910360E08FE2D1
:101F50000E94910361E08EE20E94910360E08DE2B5
:101F60000E94910360E08CE20E94910361E08BE2A9
:101F70000E94910360E08AE20E94910381E090E078
:101F800098D982E090E095D983E090E092D984E0FE
:101F900090E08FD982E090E03BC08230910509F05B
:101FA0003CC080910804882311F0E4D9BFD9809106
:101FB0000704882309F419CF81E090E07AD982E000
:101FC00090E05ED983E090E074D984E090E071D92C
:101FD00088DB80DB60E080E04EDB82E992E0A0DB22
:101FE00061E081E048DB86EA92E09ADB62E080E033
:101FF00042DB89EB92E094DB63E080E03CDB82E44F
:1020000092E08EDBF0920004E092FF0383E090E028
:102010009093FE038093FD03E8CE8330910509F091
:1020200045C068EE73E080E090E00E942E0560E01D
:1020300085E30E94910361E084E30E94910360E0E4
:1020400083E30E94910361E082E30E94910360E0D8
:1020500081E30E94910360E080E30E94910360E0CD
:102060008FE20E94910361E08EE20E94910360E0A2
:102070008DE20E94910360E08CE20E94910361E096
:102080008BE20E94910360E08AE20E94910381E06A
:1020900090E00FD982E090E00CD983E090E009D97C
:1020A00084E090E006D984E090E0B2CF84309105DE
:1020B00009F09DC080910604882381F160E085E3EA
:1020C0000E94910360E084E30E94910361E083E356
:1020D0000E94910360E082E30E94910361E081E34A
:1020E0000E94910360E080E30E94910360E08FE230
:1020F0000E94910361E08EE20E94910360E08DE214
:102100000E94910360E08CE20E94910361E08BE207
:102110000E94910360E08AE20E949103809105048D
:10212000882309F462CE81E090E0AAD882E090E0B2
:10213000A7D883E090E0A4D884E090E0A1D8D1DAD9
:10214000C9DA60E080E097DA8DEC92E0E9DA61E0EC
:1021500080E091DA88E592E0E3DA62E082E08BDA0F
:1021600082EE92E0DDDA63E084E085DA83EF92E0EC
:10217000D7DA82E067D866E870E084E195E00E94F3
:10218000FB0518D960E085E30E94910361E084E3D8
:102190000E94910360E083E30E94910360E082E388
:1021A0000E94910361E081E30E94910360E080E37B
:1021B0000E94910361E08FE20E94910360E08EE251
:1021C0000E94910360E08DE20E94910360E08CE246
:1021D0000E94910361E08BE20E94910360E08AE239
:1021E0000E949103F092FE03E092FD03FECD853044
:1021F000910549F468EE73E080E090E00E942E05BE
:1022000026E030E086C08630910579F481E090E0E8
:1022100050D882E090E04DD883E090E04AD884E046
:1022200090E047D847E050E0B8C08730910509F00A
:1022300035C080910404811155D88091030488230E
:1022400009F4D3CD4EDA46DA60E080E014DA82E9B0
:1022500092E066DA61E082E00EDA82EE92E060DA25
:1022600062E083E008DA80E093E05ADA63E087E036
:1022700002DA8EE093E054DA81E090E001D882E067
:1022800090E00E94400983E090E00E94400984E0D1
:1022900090E00E94400988E090E0BACE8830910535
:1022A000E1F47ED880911504882309F49ECD82E064
:1022B0000E94310968E270E087E195E00E94FB0529
:1022C00084E090E0909300048093FF03E9E0F0E065
:1022D000F093FE03E093FD0388CD89309105F1F47E
:1022E00068EE73E080E090E00E942E051FD881E048
:1022F00090E00E94590982E090E00E94400983E04A
:1023000090E00E94590984E090E00E9459092AE077
:1023100030E03093FE032093FD0367CD8A309105B2
:1023200009F040C080910204882381F160E085E3D8
:102330000E94910361E084E30E94910360E083E3E3
:102340000E94910361E082E30E94910360E081E3D7
:102350000E94910360E080E30E94910360E08FE2BD
:102360000E94910360E08EE20E94910361E08DE2A1
:102370000E94910360E08CE20E94910361E08BE295
:102380000E94910360E08AE20E949103809101041F
:10239000882309F42ACD44E150E05093FE03409392
:1023A000FD0323CD449709F020CD809101048823BB
:1023B00009F41BCD0E94BA091092FE031092FD038E
:1023C000109200041092FF0310CDEBE6F4E01382AC
:1023D000128288EE93E0A0E0B0E084839583A68328
:1023E000B78324E132E03183208325EC30E0358768
:1023F000248724EC30E03787268720EC30E0318BCF
:10240000208B21EC30E0338B228B22EC30E0358BBB
:10241000248B26EC30E0378B268B118E128E138E98
:10242000148EE8E0F5E01382128284839583A683FC
:10243000B78386E292E091838083E0E2F5E0138245
:10244000128288E392E0918380838FE3848384E126
:10245000818784E0828713868DE195E00E940507DD
:102460008AE195E00E94050787E195E00E94050753
:1024700084E195E00C940507052E97FB16F4009473
:102480000FD057FD05D024D007FC02D046F408C079
:1024900050954095309521953F4F4F4F5F4F089590
:1024A00090958095709561957F4F8F4F9F4F0895C0
:1024B00031D0A59F900DB49F900DA49F800D911DCC
:1024C00011240895B7FFF4CFF3DF821B930B089517
:1024D000A1E21A2EAA1BBB1BFD010DC0AA1FBB1F28
:1024E000EE1FFF1FA217B307E407F50720F0A21B9A
:1024F000B30BE40BF50B661F771F881F991F1A9407
:1025000069F760957095809590959B01AC01BD0130
:10251000CF010895A29FB001B39FC001A39F700D8A
:10252000811D1124911DB29F700D811D1124911DDB
:102530000895991B79E004C0991F961708F0961B1F
:10254000881F7A95C9F780950895EE0FFF1F881FA1
:102550008BBF0790F691E02D199481E090E0F894FC
:0625600000C0F894FFCF5B
:102566004501000001000100000040001400540075
:1025760000000000B301B30A4C01F9017D015B01C3
:102586006F0100000000FE02CF022D03A902C70260
:10259600B802AA0200000000F605B30A2D032C03B8
:1025A6000D0A0056616920656E74726172206E6153
:1025B600206C696E686131006F20636F6D626F69B0
:1025C6006F2064657374696E61646F006120427286
:1025D6006167612061732032303A3330680061747C
:1025E60072617361646F203230206D696E75746F2D
:1025F60073004F20636F6D626F696F20646573743B
:10260600696E61646F006120427261676120766164
:1026160069207061727469720064656E74726F20ED
:1026260064652032206D696E75746F73005661693A
:1026360020656E74726172206E61206C696E6861CD
:1026460032006120506F72746F2D43616D70616E40
:1026560068610070656C61732032333A303068000F
:102666007661692070617274697220617300323319
:062676003A31306800005B
:00000001FF
